:03000000022FB21A
:0C2FB200787FE4F6D8FD758181022FF9CC
:0D352500E4F5C7F5C5F5C675C380F5C422F1
:1034AE0075C78075C5018FC4EEF5C375C65A75C64E
:0734BE00A500AFC212352585
:0134C50022E4
:04345F00E0FD7F010C
:1034630075C78075C5028FC4EEF5C3AF058FC275EE
:09347300C65A75C6A500023525F4
:10000E0075C78075C5038FC4EEF5C375C65A75C620
:05001E00A500023525DC
:1030B5007F007EE212000E7F4512341B90009CEECD
:1030C500F0A3EFF07F4312341B900096EEF0A3EFD0
:1030D500F07F4712341B9000A2EEF0A3EFF09000B2
:1030E5009CE0FFAD077F007EE2123463A312345FDC
:1030F500900096E0FFAD077F02123463A3E0FD7FE9
:10310500031234639000A2E0FFAD077F041234631D
:0F311500A3E0FD7F051234637D017F0602346362
:103174007F007EE412000E9000E4E0FCA3E0FDA3D7
:10318400E0FEA3E0FF1220A5900084EFF09000C2BF
:10319400E0FCA3E0FDA3E0FEA3E0FF1220A5900065
:1031A4008DEFF07D017F007EE41234639000841281
:0C31B400345F90008DE0FD7F0202346368
:10303E007F067EE21234AEAD07ED64017047FF12DB
:10304E0034AEEF7B00FA7F011234AEEAFE90009CA4
:10305E00EEF0A3EFF07F027EE21234AEEFFA7F03C2
:10306E001234AEEAFE900096EEF0A3EFF07F047EEF
:10307E00E21234AEEFFA7F051234AEEAFE9000A2F1
:10308E00EEF0A3EFF07F007EE41234AEAD07EFB4A6
:10309E0001147F011234AE900084EFF07F021234DF
:0630AE00AE90008DEFF072
:0130B40022F9
:1029CF0004723F800000047600000000047A0000CB
:1029DF000000047E00000000046600000000046A8E
:0A29EF0000000000046E000000006C
:060F9D0090012412222F36
:100FA30078721221D278721221FA121E43783E12FD
:100FB300222378761221D278721221FA121E4378F4
:100FC30042122223787A1221D278721221FA121E47
:100FD300437846122223787E1221D278721221FAA4
:100FE300121E43784A12222378761221D27876127F
:100FF30021FA121E43784E122223787A1221D278D4
:10100300761221FA121E437852122223787E12217D
:10101300D278761221FA121E437856122223787A56
:101023001221D2787A1221FA121E43785A122223FD
:10103300787E1221D2787A1221FA121E43785E1238
:101043002223787E1221D2787E1221FA121E43784F
:1010530062122223900134E0FCA3E0FDA3E0FEA38F
:10106300E0FFA804A905AA06FB121E43C004C0059D
:10107300C006C007900130E0FCA3E0FDA3E0FEA39F
:10108300E0FFA804A905AA06FB121E43D003D00261
:10109300D001D000121D52C004C005C006C0079085
:1010A3000138E0FCA3E0FDA3E0FEA3E0FFA804A950
:1010B30005AA06FB121E43D003D002D001D00012B2
:1010C3001D52122F0A7822122223900130E0FCA332
:1010D300E0FDA3E0FEA3E0FF78221221FA121F4CE9
:1010E30090013012222F900134E0FCA3E0FDA3E035
:1010F300FEA3E0FF78221221FA121F4C9001341252
:10110300222F900138E0FCA3E0FDA3E0FEA3E0FF63
:1011130078221221FA121F4C90013812222F78469E
:101123001221FAC00078561221D2D000121D4EE4CB
:10113300FBFAF97840121E437826122223785E12B6
:1011430021D278421221FA121D52E4FBFAF97840B7
:10115300121E43782A122223784E1221FAC00078F5
:101163003E1221D2D000121D4E785A1221FA121DBE
:101173004E78621221FA121D52782E122223782AF7
:101183001221D2900138E0F8A3E0F9A3E0FAA3E03A
:10119300FB121E43C004C005C006C007782E1221EF
:1011A300D2900134E0F8A3E0F9A3E0FAA3E0FB1244
:1011B3001E43D003D002D001D000121D4E7832124C
:1011C3002223782E1221D2900130E0F8A3E0F9A374
:1011D300E0FAA3E0FB121E43C004C005C006C0072B
:1011E30078261221D2900138E0F8A3E0F9A3E0FABF
:1011F300A3E0FB121E43D003D002D001D000121D86
:101203004E783612222378261221D2900134E0F848
:10121300A3E0F9A3E0FAA3E0FB121E43C004C00558
:10122300C006C007782A1221D2900130E0F8A3E06B
:10123300F9A3E0FAA3E0FB121E43D003D002D001CE
:10124300D000121D4E783A12222378661221FAC07A
:1012530000C001C002C0037F6F7E127D837C3A7899
:10126300321221FA121E43D003D002D001D0001251
:101273001D527866122223786A1221FAC000C00137
:10128300C002C0037F6F7E127D837C3A78361221C1
:10129300FA121E43D003D002D001D000121D52789F
:1012A3006A122223786E1221FAC000C001C002C064
:1012B300037F6F7E127D837C3A783A1221FA121EE5
:1012C30043D003D002D001D000121D52786E1222F7
:1012D300237FCD7ECC7D4C7C3F78321221FA121EC7
:1012E30043900124E0F8A3E0F9A3E0FAA3E0FB12A2
:1012F3001D5278661221FA121D5290012412222FD8
:101303007FCD7ECC7D4C7C3F78361221FA121E4372
:10131300900128E0F8A3E0F9A3E0FAA3E0FB121D93
:1013230052786A1221FA121D5290012812222F7F3D
:10133300CD7ECC7D4C7C3F783A1221FA121E43902D
:10134300012CE0F8A3E0F9A3E0FAA3E0FB121D529D
:10135300786E1221FA121D5290012C12222F7872EC
:101363001221FAC000C001C002C00378761221D254
:10137300122056900124E0F8A3E0F9A3E0FAA3E0D9
:10138300FB121E43C004C005C006C007900128E03D
:10139300FCA3E0FDA3E0FEA3E0FF787A1221FA129A
:1013A3001E43A804A905AA06AB07D007D006D0059B
:1013B300D004121D4EC004C005C006C00790012C06
:1013C300E0FCA3E0FDA3E0FEA3E0FF787E1221FA98
:1013D300121E43A804A905AA06AB07D007D006D05E
:1013E30005D004121D4E7B6F7A127983783B121E4F
:1013F30043D003D002D001D000121D5278721222C2
:101403002378761221FAC000C001C002C003900104
:101413002CE0FCA3E0FDA3E0FEA3E0FF787A122119
:10142300FA121E43C004C005C006C007900124E0A1
:10143300FCA3E0FDA3E0FEA3E0FF78721221FA1201
:101443001E43D003D002D001D000121D52C004C0ED
:1014530005C006C007900128E0FCA3E0FDA3E0FE61
:10146300A3E0FF787E1221FA121E43A804A905AA5D
:1014730006AB07D007D006D005D004121D4E7B6FF4
:101483007A127983783B121E43D003D002D001D065
:1014930000121D527876122223787A1221FAC000A4
:1014A300C001C002C00390012CE0FCA3E0FDA3E057
:1014B300FEA3E0FF78761221FA121E43C004C00592
:1014C300C006C007900128E0FCA3E0FDA3E0FEA353
:1014D300E0FF78721221FA121E43D003D002D0012A
:1014E300D000121D4EC004C005C006C007900124E1
:1014F300E0FCA3E0FDA3E0FEA3E0FF787E1221FA67
:10150300121E43D003D002D001D000121D527B6FB4
:101513007A127983783B121E43D003D002D001D0D4
:1015230000121D52787A122223787E1221FAC0000B
:10153300C001C002C003900128E0FCA3E0FDA3E0CA
:10154300FEA3E0FF78761221FA121E43C004C00501
:10155300C006C00790012CE0FCA3E0FDA3E0FEA3BE
:10156300E0FF78721221FA121E43D003D002D00199
:10157300D000121D52C004C005C006C0079001244C
:10158300E0FCA3E0FDA3E0FEA3E0FF787A1221FADA
:10159300121E43A804A905AA06AB07D007D006D09C
:1015A30005D004121D4E7B6F7A127983783B121E8D
:1015B30043D003D002D001D000121D52787E1222F4
:1015C3002378761221D278761221FA121E43C004B0
:1015D300C005C006C00778721221D278721221FAB0
:1015E300121E43D003D002D001D000121D52C004FA
:1015F300C005C006C007787A1221D2787A1221FA80
:10160300121E43D003D002D001D000121D52C004D9
:10161300C005C006C007787E1221D2A804A905AA76
:1016230006AB07121E43D003D002D001D000121D17
:1016330052122F0A782212222378721221D2782290
:101643001221FA121F4C787212222378761221D2B9
:1016530078221221FA121F4C7876122223787A12FA
:1016630021D278221221FA121F4C787A122223787F
:101673007E1221D278221221FA121F4C787E122276
:1016830023787E1221D278761221FA121E43C004E7
:10169300C005C006C007787A1221D278721221FAE7
:1016A300121E43D003D002D001D000121D4EE4FB22
:1016B300FAF97840121E431233077BE17A2E7965DB
:1016C3007842121E439000E412222F787E1221D218
:1016D300787A1221FA121E43C004C005C006C0075F
:1016E30078761221D278721221FA121E43D003D0D7
:1016F30002D001D000121D52E4FBFAF97840121E09
:10170300431233077BE17A2E79657842121E4390A8
:0517130000C202222FBC
:1029F90044000C00000000440014000000004400E2
:102A090038000000004200C600004200C800004231
:102A190000CC00004200E200004200E80000420051
:102A2900FE00004200AC00004200AE00004200B0CF
:102A390000004200B200004200C000004200300025
:102A490000420036000042003C000042003E000007
:102A5900420096000042009C00004200A200004192
:102A690000840041008D005400EA000000000000CD
:102A790000000000000000000000000000005400F9
:102A8900CE0000000000000000000000000000006F
:102A9900000000000044006E0000000044007200C5
:102AA900000000440076000000004400B40000006B
:102AB900004400B8000000004400BC0000000044CD
:102AC900010800000000440100000000004401105A
:102AD9000000000044005A000000004400620000A9
:102AE900000044006A0000000044002400000000C7
:102AF90044002C00000000440032000000004400A3
:102B090048000000004400440000000044004C005C
:102B190000000044002000000000440028000000DC
:102B2900004400E4000000004400C200000000442A
:102B390000080000000044008000000000440089F3
:102B4900000000004400520000000044001800008A
:102B590000004400A4420C000044008E3C23D70A24
:102B6900440000000000004400983ECCCCCD440055
:102B79007C3C23D70A44005E411000004401040054
:102B89000000004400560000000044001C00000042
:102B9900004400A8420C00004400923C23D70A4498
:102BA90000040000000044009E3ECCCCCD440085CA
:102BB9003C23D70A4400664110000044010C000080
:102BC900000044004040A000004400104080000084
:0F2BD90042007A000042005000004200CA000093
:03000B00020026CA
:10002600C0E0C0F0C083C082C0D075D000C000C0A0
:1000360001C002C003C004C005C006C0079000CFBF
:10004600E0FCE41220719000B4E0F8A3E0F9A3E02C
:10005600FAA3E0FB121FE9501B9000B4E0FCA3E0FA
:10006600FDA3E0FEA3E0FF7BCD7ACC794C783E126F
:100076001D5280379000CFE0FCE41220719000B44E
:10008600E0F8A3E0F9A3E0FAA3E0FB121FE9602180
:10009600401F9000B4E0FCA3E0FDA3E0FEA3E0FF58
:1000A6007BCD7ACC794C783E121D4E9000B412224C
:1000B6002F9000D0E0FCE41220719000B8E0F8A385
:1000C600E0F9A3E0FAA3E0FB121FE9501B9000B889
:1000D600E0FCA3E0FDA3E0FEA3E0FF7BCD7ACC79B4
:1000E6004C783E121D5280379000D0E0FCE412207E
:1000F600719000B8E0F8A3E0F9A3E0FAA3E0FB12E0
:100106001FE96021401F9000B8E0FCA3E0FDA3E0DA
:10011600FEA3E0FF7BCD7ACC794C783E121D4E9043
:1001260000B812222F9000D2E0FCE4122071E4FB0A
:10013600FA79407840121E43E4FBFA79807840123F
:100146001F4C90003812222FE4FFFE7DC87C42909F
:100156000038E0F8A3E0F9A3E0FAA3E0FB121FE9F8
:10016600603C403A9000CEE0FF90007AE0B4002C6C
:10017600A3E0B50727900051E004F0700690005008
:10018600E004F0D3900051E09480900050E0648049
:1001960094804011E4F0A37480F080098000900000
:1001A60050E4F0A3F0900050E07004A3E064807087
:1001B6001290003812223B42CA00009000CF748091
:1001C600F0A3F09000CEE0FF90007AE4F0A3EFF009
:1001D6009000CBE004F070069000CAE004F09000B6
:1001E600CAE07004A3E0648270089000CAF0A374A9
:1001F60081F07F3D12341BAC06AD07EC12206C90EB
:10020600006212222F7F3B12341BAC06AD07EC12A4
:10021600206C90005A12222F7F3F12341BAC06AD81
:1002260007EC12206C90006A12222F7F4312341BB7
:10023600900096E0FCA3E0FDC3EF9DFDEE9CFC1252
:10024600206C90010012222F7F4512341B90009CD7
:10025600E0FCA3E0FDC3EF9DFDEE9CFC12206C903C
:10026600010812222F7F4712341B9000A2E0FCA344
:10027600E0FDC3EF9DFDEE9CFC12206C9001101278
:10028600222F900044E0FCA3E0FDA3E0FEA3E0FFE4
:1002960090001812222F900048E0FCA3E0FDA3E096
:1002A600FEA3E0FF90001C12222FE4FBFAF9784629
:1002B60090005AE0FCA3E0FDA3E0FEA3E0FF121FBE
:1002C6004C90002412222FE4FBFAF9784690006A3B
:1002D600E0FCA3E0FDA3E0FEA3E0FF121F4C9000AC
:1002E6003212222FE4FBFAF97846900062E0FCA372
:1002F600E0FDA3E0FEA3E0FF121F4C90002C1222AB
:100306002FE4FBFA79837842900100E0FCA3E0FD3C
:10031600A3E0FEA3E0FF121F4C90004412222FE43C
:10032600FBFA79837842900108E0FCA3E0FDA3E0A4
:10033600FEA3E0FF121F4C90004812222FE4FBFAA6
:1003460079837842900110E0FCA3E0FDA3E0FEA3D0
:10035600E0FF121F4C90004C12222F7F397EFA7D4F
:100366008E7C3C900044E0F8A3E0F9A3E0FAA3E019
:10037600FB121E43C004C005C006C0077F397EFAC3
:100386007D8E7C3C900048E0F8A3E0F9A3E0FAA358
:10039600E0FB121E4390012812222F7F397EFA7D40
:1003A6008E7C3C90004CE0F8A3E0F9A3E0FAA3E0D1
:1003B600FB121E4390012C12222F900024E0FCA376
:1003C600E0FDA3E0FEA3E0FF90013012222F900093
:1003D6002CE0FCA3E0FDA3E0FEA3E0FF90013412B5
:1003E600222F900032E0FCA3E0FDA3E0FEA3E0FF95
:1003F60090013812222FD007D006D005D004120F54
:100406009D900032E0FCA3E0FDA3E0FEA3E0FFA880
:1004160004A905AA06FB121E43C004C005C006C0F7
:100426000790002CE0FCA3E0FDA3E0FEA3E0FFA8FC
:1004360004A905AA06FB121E43D003D002D001D0A0
:1004460000121D52122F0AA804A905AA06AB07908E
:100456000024E0FCA3E0FDA3E0FEA3E0FF121F4C96
:10046600122C197BE17A2E79657842121E43900090
:100476002012222F900032E0FCA3E0FDA3E0FEA3B1
:10048600E0FFA804A905AA06FB121E43C004C00586
:10049600C006C007900024E0FCA3E0FDA3E0FEA395
:1004A600E0FFA804A905AA06FB121E43D003D0024A
:1004B600D001D000121D52122F0AA804A905AA06BF
:1004C600AB0790002CE0FCA3E0FDA3E0FEA3E0FF59
:1004D600121F4C122C197BE17A2E79657842121E76
:1004E6004390002812222F9000CFE0FCE4122071E6
:1004F600E4FBFAF978C3121D52E4FBFA79E078407E
:10050600121F4C9000B412222F9000B4E0F8A3E022
:10051600F9A3E0FAA3E0FB9000E4E0FCA3E0FDA36E
:10052600E0FEA3E0FF121D4EC004C005C006C007D2
:10053600900084E0FC122071A804A905AA06AB0766
:10054600D007D006D005D004121D4E90008012228E
:100556002FE4FFFE7DA07C41900038E0F8A3E0F98F
:10056600A3E0FAA3E0FB121FE990000060264024F6
:10057600E0FCA3E0FDA3E0FEA3E0FF900080E0F82E
:10058600A3E0F9A3E0FAA3E0FB121D5290000012CB
:10059600222F800712223B00000000E4FFFE7DFAB6
:1005A6007C43900000E0F8A3E0F9A3E0FAA3E0FBA7
:1005B600121FE9600E400C90000012223B43FA0025
:1005C600008024E4FFFE7DFA7CC3900000E0F8A3DF
:1005D600E0F9A3E0FAA3E0FB121FE9500A9000003D
:1005E60012223BC3FA000090008EE0FCA3E0FDA3BC
:1005F600E0FEA3E0FF900000E0F8A3E0F9A3E0FA34
:10060600A3E0FB121E43C004C005C006C00790004D
:10061600A4E0FCA3E0FDA3E0FEA3E0FF900080E0E1
:10062600F8A3E0F9A3E0FAA3E0FB121E43D003D03F
:1006360002D001D000121D5290005212222FE4FF68
:10064600FE7DA07C41900038E0F8A3E0F9A3E0FA33
:10065600A3E0FB121FE990010460474045E0F8A3C0
:10066600E0F9A3E0FAA3E0FBC000C001C002C003AA
:10067600900052E0F8A3E0F9A3E0FAA3E0FB9000B3
:1006860048E0FCA3E0FDA3E0FEA3E0FF121D4ED070
:1006960003D002D001D000121D5290010412222F65
:1006A600800712223B00000000E4FFFE7DFA7C4337
:1006B600900104E0F8A3E0F9A3E0FAA3E0FB121F1F
:1006C600E9600E400C90010412223B43FA000080C0
:1006D60024E4FFFE7DFA7CC3900104E0F8A3E0F970
:1006E600A3E0FAA3E0FB121FE9500A9001041222CC
:1006F6003BC3FA0000900052E0FCA3E0FDA3E0FE3D
:10070600A3E0FF900048E0F8A3E0F9A3E0FAA3E035
:10071600FB121D52900098E0F8A3E0F9A3E0FAA3BB
:10072600E0FB121E43C004C005C006C00790007C53
:10073600E0FCA3E0FDA3E0FEA3E0FF900104E0F8E7
:10074600A3E0F9A3E0FAA3E0FB121E43D003D00214
:10075600D001D000121D52C004C005C006C00790CB
:10076600001CE0F8A3E0F9A3E0FAA3E0FB90004840
:10077600E0FCA3E0FDA3E0FEA3E0FF121D4E900007
:100786005EE0F8A3E0F9A3E0FAA3E0FB121E43D073
:1007960003D002D001D000121D5290006E12222FFB
:1007A600E4FFFE7D7A7C4490006EE0F8A3E0F9A3B6
:1007B600E0FAA3E0FB121FE9600C400A90006E12FB
:1007C600223B447A0000E4FFFE7D7A7CC490006EF2
:1007D600E0F8A3E0F9A3E0FAA3E0FB121FE9500A50
:1007E60090006E12223BC47A000090006EE0FCA3DB
:1007F600E0FDA3E0FEA3E0FF1220561220A5900024
:10080600ACEEF0A3EFF090006EE0FCA3E0FDA3E0F9
:10081600FEA3E0FF1220A59000B0EEF0A3EFF0904B
:1008260000D0E0FFC3948F500BEF94714006900008
:10083600D07480F09000D0E0FCE4122071E4FBFA62
:10084600F978C3121D52E4FBFA79E07840121F4C86
:100856009000B812222F9000B8E0FCA3E0FDA3E0C0
:10086600FEA3E0FF9000C2E0F8A3E0F9A3E0FAA33C
:10087600E0FB121D52C004C005C006C00790008DE3
:10088600E0FC122071A804A905AA06AB07D007D080
:1008960006D005D004121D4E90008912222FE4FFC7
:1008A600FE7DA07C41900038E0F8A3E0F9A3E0FAD1
:1008B600A3E0FB121FE990000460264024E0FCA39D
:1008C600E0FDA3E0FEA3E0FF900089E0F8A3E0F9D5
:1008D600A3E0FAA3E0FB121D5290000412222F801F
:1008E6000712223B00000000E4FFFE7DFA7C4390E5
:1008F6000004E0F8A3E0F9A3E0FAA3E0FB121FE985
:10090600600E400C90000412223B43FA0000802443
:10091600E4FFFE7DFA7CC3900004E0F8A3E0F9A3AF
:10092600E0FAA3E0FB121FE9500A90000412223BF2
:10093600C3FA0000900092E0FCA3E0FDA3E0FEA352
:10094600E0FF900004E0F8A3E0F9A3E0FAA3E0FBDF
:10095600121E43C004C005C006C0079000A8E0FCF4
:10096600A3E0FDA3E0FEA3E0FF900089E0F8A3E08A
:10097600F9A3E0FAA3E0FB121E43D003D002D00194
:10098600D000121D5290005612222FE4FFFE7DA0C9
:100996007C41900038E0F8A3E0F9A3E0FAA3E0FB7D
:1009A600121FE990010C60474045E0F8A3E0F9A367
:1009B600E0FAA3E0FBC000C001C002C003900056ED
:1009C600E0F8A3E0F9A3E0FAA3E0FB900044E0FC22
:1009D600A3E0FDA3E0FEA3E0FF121D4ED003D0026C
:1009E600D001D000121D5290010C12222F80071246
:1009F600223B00000000E4FFFE7DFA7C4390010CE0
:100A0600E0F8A3E0F9A3E0FAA3E0FB121FE9600E09
:100A1600400C90010C12223B43FA00008024E4FFB4
:100A2600FE7DFA7CC390010CE0F8A3E0F9A3E0FA9E
:100A3600A3E0FB121FE9500A90010C12223BC3FAF5
:100A46000000900056E0FCA3E0FDA3E0FEA3E0FF5B
:100A5600900044E0F8A3E0F9A3E0FAA3E0FB121D3E
:100A66005290009EE0F8A3E0F9A3E0FAA3E0FB129F
:100A76001E43C004C005C006C007900085E0FCA365
:100A8600E0FDA3E0FEA3E0FF90010CE0F8A3E0F98F
:100A9600A3E0FAA3E0FB121E43D003D002D001D09C
:100AA60000121D52C004C005C006C007900018E021
:100AB600F8A3E0F9A3E0FAA3E0FB900044E0FCA36E
:100AC600E0FDA3E0FEA3E0FF121D4E900066E0F8F5
:100AD600A3E0F9A3E0FAA3E0FB121E43D003D00281
:100AE600D001D000121D5290007212222FE4FFFE98
:100AF6007D7A7C44900072E0F8A3E0F9A3E0FAA3C3
:100B0600E0FB121FE9600C400A90007212223B447F
:100B16007A0000E4FFFE7D7A7CC4900072E0F8A3C0
:100B2600E0F9A3E0FAA3E0FB121FE9500A90007275
:100B360012223BC47A0000900072E0FCA3E0FDA301
:100B4600E0FEA3E0FF1220A59000B2EEF0A3EFF0C6
:100B5600900072E0FCA3E0FDA3E0FEA3E0FF1220FC
:100B6600561220A59000AEEEF0A3EFF09000D1E073
:100B7600FCE4122071E4FBFAF978C3121D52E4FB7F
:100B8600FA79C0783F121E439000BC12222F9000C3
:100B96004CE0FCA3E0FDA3E0FEA3E0FF9000BCE078
:100BA600F8A3E0F9A3E0FAA3E0FB121D4E90004C77
:100BB60012222F900008E0F8A3E0F9A3E0FAA3E0E0
:100BC600FB90004CE0FCA3E0FDA3E0FEA3E0FF12D7
:100BD6001D4E900010E0F8A3E0F9A3E0FAA3E0FBB5
:100BE600121E43C004C005C006C007900040E0FCCA
:100BF600A3E0FDA3E0FEA3E0FF90004CE0F8A3E035
:100C0600F9A3E0FAA3E0FB121E43D003D002D00101
:100C1600D000121D5290007612222F90004CE0FC5C
:100C2600A3E0FDA3E0FEA3E0FF90000812222F90B0
:100C360000ACE0FCA3E0FDEC12206C900076E0F83E
:100C4600A3E0F9A3E0FAA3E0FB121D521220A5903F
:100C560000ACEEF0A3EFF09000B0E0FCA3E0FDECFA
:100C660012206C900076E0F8A3E0F9A3E0FAA3E086
:100C7600FB121D521220A59000B0EEF0A3EFF090EB
:100C860000AEE0FCA3E0FDEC12206C900076E0F8EC
:100C9600A3E0F9A3E0FAA3E0FB121D4E1220A590F3
:100CA60000AEEEF0A3EFF09000B2E0FCA3E0FDECA6
:100CB60012206C900076E0F8A3E0F9A3E0FAA3E036
:100CC600FB121D4E1220A59000B2EEF0A3EFF0909D
:100CD6000080E0FCA3E0FDA3E0FEA3E0FF1220A558
:100CE6009000C6EEF0A3EFF0900089E0FCA3E0FDD3
:100CF600A3E0FEA3E0FF1220A59000C8EEF0A3EF4C
:100D0600F0900020E0FCA3E0FDA3E0FEA3E0FF12CC
:100D160020A59000CCEEF0A3EFF0900028E0FCA315
:100D2600E0FDA3E0FEA3E0FF1220A59000E2EEF0B6
:100D3600A3EFF09000E8E4F0A3F09000FEF0A3F03B
:100D4600FFFE7D807C40900038E0F8A3E0F9A3E048
:100D5600FAA3E0FB121E43A804A905AA06AB07E402
:100D6600FFFE7D7A7C44121D4EC004C005C006C03D
:100D7600079000ACE0FCA3E0FDEC12206CD003D0A1
:100D860002D001D000121D521220A5900030EEF0C4
:100D9600A3EFF0D394E8EE64809483400C90003087
:100DA6007403F0A374E8F0800FC3900030E0648011
:100DB60094805004E4F0A3F0E4FFFE7D807C409034
:100DC6000038E0F8A3E0F9A3E0FAA3E0FB121E4323
:100DD600A804A905AA06AB07E4FFFE7D7A7C4412A7
:100DE6001D4EC004C005C006C0079000AEE0FCA3BF
:100DF600E0FDEC12206CD003D002D001D000121D11
:100E0600521220A5900036EEF0A3EFF0D394E8EE50
:100E160064809483400C9000367403F0A374E8F069
:100E2600800FC3900036E0648094805004E4F0A301
:100E3600F0E4FFFE7D807C40900038E0F8A3E0F906
:100E4600A3E0FAA3E0FB121E43A804A905AA06AB79
:100E560007E4FFFE7D7A7C44121D4EC004C005C027
:100E660006C0079000B0E0FCA3E0FDEC12206CD0B9
:100E760003D002D001D000121D521220A590003CD2
:100E8600EEF0A3EFF0D394E8EE64809483400C90E8
:100E9600003C7403F0A374E8F0800FC390003CE0BC
:100EA600648094805004E4F0A3F0E4FFFE7D807C2F
:100EB60040900038E0F8A3E0F9A3E0FAA3E0FB12C3
:100EC6001E43A804A905AA06AB07E4FFFE7D7A7CAB
:100ED60044121D4EC004C005C006C0079000B2E013
:100EE600FCA3E0FDEC12206CD003D002D001D000B0
:100EF600121D521220A590003EEEF0A3EFF0D394FF
:100F0600E8EE64809483400C90003E7403F0A37472
:100F1600E8F0800FC390003EE0648094805004E4C3
:100F2600F0A3F0E4FFFE7D207C41900038E0F8A3BA
:100F3600E0F9A3E0FAA3E0FB121FE9402990003C88
:100F4600E0FCA3E0FD900030E0FAA3E0FB90003E59
:100F5600E0FFA3E090012ACFF0A3EFF0900036E087
:100F6600FEA3E0FF801390012A7403F0A374E8F057
:100F7600FB7A03FD7C03FF7E0312313AD007D006CD
:100F8600D005D004D003D002D001D000D0D0D0827A
:070F9600D083D0F0D0E0325F
:102D1B0012266A12303E1233F81234951234DB90BD
:102D2B0000CF7480F0A3F0A3F0E4A3F07FF47E0156
:102D3B0012320B7B017A0079CE12328F9000D3E0E6
:102D4B0064017067D39000CBE094809000CAE0647C
:102D5B0080948040561230B5E49000D3F0C2AF900F
:102D6B00FFF27410F075D7EB75D6FF90012A740340
:102D7B00F0A374C0F0FB7A03FD7C03FF7E031231DA
:102D8B003A7F607EEA12320B90012A7403F0A3742F
:102D9B00E8F0FB7A03FD7C03FF7E0312313A90FFD0
:102DAB00F2E4F0D2AF9000CAF0A3F09000D4E0644C
:102DBB00016003022D37D39000CBE094809000CAC2
:102DCB00E0648094805003022D37123174E490003C
:102DDB00D4F0C2AF90FFF27410F075D7EB75D6FF3D
:102DEB0090012A7403F0A374C0F0FB7A03FD7C03FB
:102DFB00FF7E0312313A7F607EEA12320B90012A7A
:102E0B007403F0A374E8F0FB7A03FD7C03FF7E03ED
:102E1B0012313A90FFF2E4F0D2AF9000CAF0A3F077
:032E2B00022D373E
:07355900D280123560C28030
:043560007F0BDFFE00
:013564002244
:0F351600D2C6D280123560C2C6123560C2802282
:0C356500C2C6D280123560D2C6023560AA
:0D353200D280123560A2C6C2801235602220
:0234C600AE074F
:1034C800E4FDEE25E0FE92C61235590DEDB408F282
:0334D80002353288
:10343E00E4FED2C6FDEE25E0FED280123560A2C6B5
:10344E00E4334EFEC2801235600DEDB408E7AF06D0
:01345E00224B
:10347C00AC05AB071235167FD01234C6AF0312342D
:09348C00C6AF041234C602356516
:0233AD00AC076B
:1033AF001235167FD01234C6AF041234C61235163A
:1033BF007FD11234C612343EAE07D2C6123559121F
:0433CF003565AF06AB
:0133D30022D7
:1033F800E4FD7F6B12347C7D077F1912347C7D04D9
:103408007F1A12347C7D087F1B12347C7D087F1C58
:0334180002347CFF
:02341B00AB07FD
:10341D001233ADAA07EB04FF1233ADAD07AF02EFC8
:10342D003395E0EFFEED3395E0FCE42DFFEE3CFE31
:01343D00226C
:102BE800450151344310100145014C344310100184
:10320B00E490011BF0A3F0C390011CE09F90011B05
:10321B00E09E500EA3E004F070ED90011BE004F073
:10322B0080E5E490011BF0A3F0C390011CE09F909C
:10323B00011BE09E500EA3E004F070ED90011BE02B
:04324B0004F080E526
:01324F00225C
:0A358900EFD3940040031F80F722E7
:1031C000C2E9D2EAC2EB7B017A01795190011A740B
:1031D00005F07F301233427B017A01794C90011A5D
:1031E0007405F07F2A1233427D017F211235037D61
:1031F000017F221235037D6E7F251235037D147FFA
:0B320000311235037D277F26023503C5
:0A337B00EBF0A3EAF0A3E9F0C2EAC8
:02338500AE0791
:10338700E4FDEE339290EE25E0FED2EB7F0C123592
:1033970089A291E4334EFE7F0C123589C2EB0DED05
:0533A700B408DFAF06D1
:0133AC0022FE
:0233D400AE0742
:1033D600C2EA7F0C123589AF061233857F0C12358F
:1033E60089E4FF123385AE077F0C123589D2EAAF26
:0133F60006D0
:0133F70022B3
:02350300AC0515
:10350500C2EA123385AB07AF04123385D2EAAF03A3
:013515002293
:0332CC0090011F4F
:1032CF0012337B900123EFF0E4FC900122E0FFEC3E
:1032DF00C39F501CE4FF12338590011FE0FBA3E056
:1032EF00FAA3E0F98C82758300EF12218C0C80DA3F
:0732FF00D2EA900123E0FF79
:0133060022A4
:03334200900117E0
:1033450012337B90011BEFF0E4FC90011AE0FFECD7
:10335500C39F501A900117E0FBA3E475F0011221F9
:10336500AEA9F0FA122173FF1233850C80DCD2EA84
:0533750090011BE0FFC8
:01337A002230
:0C357100C2E97D0F7F20123503D2E92251
:0B328F0090011BEBF0A3EAF0A3E9F0B4
:10329A00E4FA7F071233D48F2030061AC2E990016C
:1032AA001BE0FBA3E0FAA3E0F99001227414F07F7B
:1032BA00611232CC7A01AD207F27123503D2E9AFF1
:0132CA000201
:0132CB0022E0
:10325000900156EBF0A3EAF0A3E9F07DFF7F27127F
:1032600035037DFF7FE1123503C2E9900156E0FB93
:10327000A3E0FAA3E0F990011A7414F07FA01233CE
:0F328000427D0E7F20123503D2E97F0A02358985
:1017180000E5E8EBECEEF0F200CBD0D6D8DCE0E464
:101728000101050506060500040403030202010081
:10173800050504040303020005050404030302006D
:101748000101050506060500040403030202010061
:10175800FF0F01110F0F100F000F01110F100D10C7
:10176800001010100F0D0D0E000E0E0E0F100D0EA6
:101778000C000F01110F0F100F000F01110F100DAA
:1017880010001010100F0D0D0D0E000E0E0E0D0B8B
:101798000B0C0B00FF0F010F0E0D0C0B000B0B0CAD
:1017A8000D0D0B0D0F000F010F0E0D0F0C000E0D80
:1017B8000C100F0C0B000F0D100111100F0002027E
:1017C800020111100F000F0D1001111102000F106E
:1017D8001101020F0100FF0D000F040302020302B2
:1017E8000101100100000F1001020003000F0403A3
:1017F80002000300020101100100030405011101A8
:101808000001020105011101000101010707070696
:101818000606060605030403040405050F0F0E0D4E
:101828000C0500050505040302010102030002017D
:1018380011100201030F0505050403040301020F3B
:101848000504030304030304030403020100010362
:101858000506060605020204030000010305060644
:101868000605020204030403020101010203011038
:101878000207070701010F100B010203030502030A
:1018880002020502010F10110100000F05030201F9
:10189800000F0503020302020100010107071005FA
:1018A80006050305000101070706000505010302F7
:1018B80001030403011001060F00050003030510CE
:1018C800000202040D0001011101060302010200D9
:1018D80005000003050505050503050003050505C5
:1018E80005030201000305050601010005050506BB
:1018F80001010005050506010101010107070700AF
:1019080003000300030201010101010202010100B9
:101918000102010305030605030201020203010196
:1019280000110B0C0D0D0D0D0E0D0C0B0C110B0CED
:101938000C0C0D0D0C0B110B10110B100B0B0B0BD2
:101948000B0B0C0C0B0F0000010204050303020132
:10195800020202020301020201000F100103030345
:10196800020102020203020100000F030303020244
:1019780000101110100002001003030302010202FC
:1019880002030201001010110111010303041110D8
:101998000F020203100F10101101010202020111BF
:1019A8000000040404030403020202020303030206
:1019B80001010102020202011100111111110111AC
:1019C800060003020003010001110F100001021EAE
:1019D80001030000030303030303040302011010BF
:1019E800040403010201000F010F0102030F0F0F8E
:1019F80004030302020210030201010110020101A3
:101A0800000F010F0102030F0F0F0403030202026C
:101A180010030101010110020110011100000F1053
:101A280001010101011001000202010101100F0F63
:101A38000F0F100110020101011111111101020310
:101A48000201020202010201100F100F1001011021
:101A5800011003020201100201000F100100010130
:101A6800010110010F100F0F100F0F1001011010BE
:101A78000F0F0D0C0D0C0C0D0C0C0D0F0F0F0D0C8A
:101A88000F100100100F100101100D0F10010010B0
:101A98000F100101100F0D0C0B0C0D0F100F100182
:101AA800100001100F0D0C0B0C0D0C0D0B000F107E
:101AB800011001100F1001030D0D0C0C0C0C0B0D77
:101AC8000C0F10011001100F100103000D0D0C0D6B
:101AD8000D0C0D0C0B00000F0F100B0B0B0C0D0D4C
:101AE8000D0F10010F100F0D0D0F0C0C0D0C0B101E
:101AF800100B0C0C0D0C0B0F0F01110F0F100F001A
:101B08000F01110F100D101010100F0D0D0D0E0EEE
:101B18000E0F100D000C000F000F021101000D0E2A
:101B28000F101010100F10100F1010100C020102DF
:101B380002020101111111111101110F10000C0DF8
:101B48000E0D0B0E0D0B0B000001020201000F051C
:101B58000302030001020201000F05030201010252
:101B68000201000F03020F030201020301100F100C
:101B78000E001001100302020100100110030201FF
:101B880003110F11010201100102030210010203E7
:101B9800020D030303110203000F0F1001100203CB
:101BA800000F0503020103030410030202010304EA
:101BB80003030202020302010605030203030201F2
:101BC8001001010F010302020202020102011006C4
:101BD800050302030302011001010F0103020202BF
:101BE8000202050202010203000D10110101011198
:101BF800100F11020403000102030504030201028D
:101C080010110D10110101020111100F1104030030
:101C1800010C03050403020102020302010100048E
:101C280005010E0E000111100F0F00101010010E0B
:101C38000E000E0E0D0C0D001011010E0E000111FC
:101C4800100E0E0F0E000F0E0D0B0B0C000C0D00DE
:101C58000D0D0E0F0F0E0D0B0F0F0E0D0B0F0C0DA4
:101C6800000D0D0E0F0F010B0B0B0F0E0D0B0F0DB3
:101C78000D0F0C0B0C0D0D100B000B0B11001011A0
:101C88000B00000F01020302010101050003050515
:101C980003030203040500030202010110010210FC
:101CA800000F0F100101100110010C0D001111019E
:101CB8000B0C100F100F000B0B0B0B0C0F0D0F0D57
:101CC80000101010110B0B0B0F0C0D000C0C100D4D
:101CD8000C0C0B100C0B000F000F0F0D100F0D004C
:101CE8000D000C0B000B0101010110100D0F000F6E
:101CF8000F1001100100100F0F0B00100B0D0C0B33
:101D08000B0F0B000102020201060002030405008A
:101D18000102030504040304030202030001020193
:101D28000600070102020100000403020101030486
:101D3800040504060107070605000302010503035D
:031D480000030095
:10266A00900114E4F0A304F0E4F594F593F592F5DF
:10267A0091F596F595F5B2F5B1F5B4F5B3F5CAF558
:10268A00C9F5CCF5CBF5E2F5E175960EF59575B27F
:10269A0080F5B112353F75BA8075F1B090FFF274CA
:1026AA0010F0E4F5F6F5F790FFF07403F0A374E97F
:1026BA00F090FF04E4F090FF14F090FF24F090FFF4
:1026CA0034F090FF007403F0A374E8F0A37403F0ED
:1026DA00A374E9F090FF107403F0A374E8F0A374F4
:1026EA0003F0A374E9F090FF207403F0A374E8F0F8
:1026FA00A37403F0A374E9F090FF307403F0A37499
:10270A00E8F0A37403F0A374E9F075F58F1231278A
:10271A007F607EEA12320B7F307E7512320B75D7DC
:10272A00E875D6FF7F607EEA12320B7F307E751223
:10273A00320B75D7E575D6FF7F607EEA12320B7FC2
:10274A00307E7512320B90012A7403F074E812314C
:10275A002F7F607EEA12320B7F607EEA12320B7F95
:10276A00607EEA12320B7F607EEA12320B75D7E581
:10277A001231247F607EEA12320B7F307E7512326C
:10278A000B90012A7403F0A374E81231307F607E43
:10279A00EA12320B1231277F607EEA12320B7F3047
:1027AA007E7512320B90012A7403F0A374E8123179
:1027BA00307F607EEA12320B1231277F607EEA1286
:1027CA00320B7F307E7512320B90012A7403F0A30C
:1027DA0074E81231301231C0123571900114E07070
:1027EA0002A3E0700302298D9000CEE070597F6049
:1027FA007EEA12320B7F607EEA12320B7F607EEA3B
:10280A0012320B7F607EEA12320B7F607EEA12324E
:10281A000B7F607EEA12320B7F607EEA12320B7FF8
:10282A00607EEA12320B7F607EEA12320B7F607E94
:10283A00EA12320B7F607EEA12320B7F607EEA1266
:10284A00320B7F0412226C9000CEE070597F607EBA
:10285A00EA12320B7F607EEA12320B7F607EEA1246
:10286A00320B7F607EEA12320B7F607EEA12320BF5
:10287A007F607EEA12320B7F607EEA12320B7F6043
:10288A007EEA12320B7F607EEA12320B7F607EEAAA
:10289A0012320B7F607EEA12320B7F607EEA1232BE
:1028AA000B7F0212226C9000CEE070597F607EEAA4
:1028BA0012320B7F607EEA12320B7F607EEA12329E
:1028CA000B7F607EEA12320B7F607EEA12320B7F48
:1028DA00607EEA12320B7F607EEA12320B7F607EE4
:1028EA00EA12320B7F607EEA12320B7F607EEA12B6
:1028FA00320B7F607EEA12320B7F607EEA12320B65
:10290A007F0112226C9000CEE070597F607EEA123D
:10291A00320B7F607EEA12320B7F607EEA12320B44
:10292A007F607EEA12320B7F607EEA12320B7F6092
:10293A007EEA12320B7F607EEA12320B7F607EEAF9
:10294A0012320B7F607EEA12320B7F607EEA12320D
:10295A000B7F607EEA12320B7F607EEA12320B7FB7
:10296A000312226C7B017A0079CE12328F9000CE4C
:10297A00E0D3940050030227E5E4900114F0A3F099
:10298A000227E575D7E51231277F607EEA12320BFE
:10299A007F607EEA12320B7F607EEA12320B7F6022
:1029AA007EEA12320B7F607EEA12320B7F607EEA89
:1029BA0012320B90012A7403F0A374E8123130909A
:0429CA00FFF2E4F044
:0129CE0022E6
:1031240075D6FF90012A7403F074C0A3F0FB7A03F0
:06313400FD7C03FF7E0399
:10313A00900124EEF0A3EFF0900124E090FF00F05C
:10314A00900124A3E090FF01F0EC90FF10F0A3EDB2
:10315A00F0EA90FF20F0A3EBF090012AE0FCA3E054
:0A316A00FDEC90FF30F0A3EDF02221
:05226C00900116EFF0E7
:10227100A3E4F0A304F0E4A3F0A3F012312490014D
:1022810016E064016003022379900117E07002A354
:10229100E070030223797B017A0079CE12328F90AC
:1022A10000CEE0D394004003022379900119E0FEAF
:1022B100A3E02428F58274173EF583E493703290ED
:1022C100012A7403F0A374E81231307F607EEA12B0
:1022D100320B7F607EEA12320B7F607EEA12320B94
:1022E10012312790011AE004F07006900119E00400
:1022F100F0900119E0FEA3E02428F58274173EF561
:1023010083E493FFC3940A5006EF90171880159049
:102311000119E0FEA3E02428F58274173EF583E459
:102321009390171693F5D790011AE004F070069078
:102331000119E004F0900119E0FEA3E02428F582E0
:1023410074173EF583E493B4FF07E4900117F0A3FB
:10235100F07F607EEA12320B7F607EEA12320B90D0
:10236100012A7403F0A374E81231307F307E7512B4
:10237100320B12312702228A900116E064026003B7
:10238100022473900117E07002A3E070030224732A
:102391007B017A0079CE12328F9000CEE0D3940087
:1023A1004003022473900119E0FEA3E02459F58251
:1023B10074173EF583E493703290012A7403F0A3FD
:1023C10074E81231307F607EEA12320B7F607EEA60
:1023D10012320B7F607EEA12320B12312790011A02
:1023E100E004F07006900119E004F0900119E0FE9C
:1023F100A3E02459F58274173EF583E493FFC39457
:102401000A5006EF9017188015900119E0FEA3E01D
:102411002459F58274173EF583E49390171693F5CA
:10242100D790011AE004F07006900119E004F090D1
:102431000119E0FEA3E02459F58274173EF583E407
:1024410093B4FF07E4900117F0A3F07FE87EFD123B
:10245100320B7FE87EFD12320B90012A7403F0A348
:1024610074E81231307F307E7512320B123127023F
:102471002384900116E0640360030225669001172E
:10248100E07002A3E070030225667B017A0079CE39
:1024910012328F9000CEE0D3940040030225669063
:1024A1000119E0FEA3E0249DF58274173EF583E453
:1024B10093702B90012A7403F0A374E81231307FDA
:1024C100607EEA12320B7F307E7512320B12312799
:1024D10090011AE004F07006900119E004F09001F7
:1024E10019E0FEA3E0249DF58274173EF583E49381
:1024F100FFC3940A5006EF9017188015900119E058
:10250100FEA3E0249DF58274173EF583E4939017B2
:102511001693F5D790011AE004F07006900119E0C6
:1025210004F0900119E0FEA3E0249DF58274173EAA
:10253100F583E493B4FF07E4900117F0A3F07F6003
:102541007EEA12320B7F607EEA12320B90012A740E
:1025510003F0A374E81231307F307E7512320B1212
:10256100312702247E900116E064046003022654A0
:10257100900117E07002A3E070030226547B017AF8
:102581000079CE12328F9000CEE0D3940040030246
:102591002654900119E0FEA3E024DFF58274173E72
:1025A100F583E493702690012A7403F0A374E81272
:1025B10031307F607EEA12320B12312790011AE02E
:1025C10004F070CE900119E004F080C6900119E08A
:1025D100FEA3E024DFF58274173EF583E493FFC385
:1025E100940A5006EF9017188015900119E0FEA388
:1025F100E024DFF58274173EF583E4939017169378
:10260100F5D790011AE004F07006900119E004F08A
:10261100900119E0FEA3E024DFF58274173EF583F3
:10262100E493B4FF07E4900117F0A3F07FE87EFD87
:1026310012320B7FE87EFD12320B90012A7403F0F7
:10264100A374E81231307F307E7512320B123127BC
:1026510002257190012A7403F0A374E8F0FB7A0358
:09266100FD7C03FF7E0302313A07
:1034DB00538E7F5389F075A882758A15758CB7C288
:0434EB008DD28C22D0
:0D353F00438E0475D7EB75D6FF438E102226
:1034EF00438E4053890F75A88A758B54758DF2C220
:0434FF008FD28E22B8
:10349500759850438E40538EFE53890F758BC375B7
:0934A5008DFFC2ABD28ED2AF2222
:0300230002354C57
:0D354C00309802C298309904C299C20A3228
:03357D00A3E0FFC9
:09358000200AFDEFD20AF59922A0
:0E2E2E00900140EEF0A3EFF0A3ECF0A3EDF066
:102E3C00E4FDD2AC7FAA1235801235807F021235A8
:102E4C00807F0C12358090014012357D900140E05E
:102E5C00FF12358090014212357D900142E0FF1245
:102E6C003580AF03123580EAFF123580900146A3FE
:102E7C00E0FF123580900146E0FF1235809001484A
:102E8C00A3E0FF123580900148E0FF1235809001DD
:102E9C004AA3E0FF12358090014AE0FF123580ED25
:102EAC0024AA24AAFD0D0D740C2DFD900140E0FF09
:102EBC00EF2DFDA3E02DFDA3E0FFEF2DFDA3E02DF5
:102ECC00FDEAFFEF2D2BFD900146E0FAA3E0FBEAB3
:102EDC00FFEF2DFDEB2DFDA3E0FAA3E0FBEAFFEFE6
:102EEC002DFDEB2DFDA3E0FAA3E0FBEAFFEF2DFD9A
:092EFC00EB2DFDFF123580C2AC84
:012F050022A9
:101D4B00022111E86480F8E933E83360110460F094
:101D5B00ED33EC337009E8FCE9FDEAFEEBFF2204FE
:101D6B0060DED3EB9FEA9EE99DE8C2E78CF0C2F7F9
:101D7B0095F0400CE8CCF8E9CDF9EACEFAEBCFFBC5
:101D8B001220DC85D0F05804700320D5B3E8047022
:101D9B00075002B2D502211B92D5EC0460F7E4CCBC
:101DAB00C0E0C398F8603B94186008400DD0E0FB8E
:101DBB000220F3E4FBFAC9FC8028E830E406E4C90E
:101DCB00FBE4CAFCE830E305E4C9CACBFCE85407E2
:101DDB006010F8C3E913F9EA13FAEB13FBEC13FCED
:101DEB00D8F130F52FC3E49CFCEF9BFFEE9AFEED90
:101DFB0099FDD0E0FBEF4E4D4C701222DB0302211C
:101E0B0018EC2CFCEF33FFEE33FEED33FDED30E73A
:101E1B00EB0220F3EF2BFFEE3AFEED39FDD0E0FBAA
:101E2B0050130BBB000302211BED13FDEE13FEEF52
:081E3B0013FFEC13FC0220F37D
:101E4300EC4D6011E8497017ED33EC3304600DE499
:101E5300FCFFFEFD22E933E8330470F8022111127E
:101E630020DC58046009E4CC248150062850090280
:101E7300211B284003022118C0E0EB4A7044B980BB
:101E830006D0E0FB022107EF4E701CBD8008EBFF7C
:101E9300EAFEE9FD80EBE98DF0A4FEE5F0021F2CDC
:101EA300E9CDF9EAFEEBFFEF89F0A4FCE5F0CE897A
:101EB300F0A42EFFE435F0CD89F0A42DFEE435F037
:101EC3008067EF4E7005BD80D780C3EF8BF0A4AC65
:101ED300F0EE8BF0A42CFCE435F0F8EF8AF0A42CA0
:101EE300E5F038FCE433CB8DF0A42CFCE5F03BF8B3
:101EF300EE8AF0A42CFCE5F038F8E433CF89F0A4A3
:101F03002CFCE5F038CF3400CE89F0A42FFFE5F0A8
:101F13003EFEE433C98DF0A42EFEE5F039CD8AF000
:101F2300A42FFFE5F03EFEE43DFD33D0E0FB500778
:101F33000BBB000F02211BEC2CFCEF33FFEE33FE37
:061F4300ED33FD0220F366
:101F490002211BEC5D046005E859047003022111AC
:101F59001220DC580460F6EC4860F2EC7004FDFED7
:101F6900FF22C860DB2481C85009C398600250066B
:101F79000221189850CAF582E9294B4A7005AB82AB
:101F890002210775F0007C1A7880C3EF9BEE9AED69
:101F990099400DC3EF9BFFEE9AFEED99FDE842F0E3
:101FA900DC23ACF0D0E0FFD0E0FED0E0FDAB822036
:101FB900E7101BEB60BAEC2CFCEF33FFEE33FEEDC0
:101FC90033FD0220F3E803F830E705C0F075F000AF
:101FD900EF2FFFEE33FEED33FD40B830E7C280AAA4
:101FE90074F8CC6480CCC86480C8F582046043C3AB
:101FF900EB9FF5F0EA9E42F0E99D42F0E89C45F03E
:1020090060305018E5825FFFE582F42B5582FB5062
:10201900210ABA001D09B90019088016E5825BFB7F
:10202900E582F42F5582FF50090EBE00050DBD0053
:10203900010CC3EB9FF5F0EA9E42F0E99D42F0E8FE
:0D2049009C45F06007CC4820E701B3EC2275
:10205600ED33EC33600A047003BD8004ECB2E7FC98
:012066002257
:1020670075F020800E75F010800575F0087D007EF4
:10207700007F003392D530D5031221C4EC334010D2
:10208700EF33FFEE33FEED33FDEC33FCD5F0ED22FD
:0E209700E5F0247EA2D513CC92E7CDCEFF2239
:1020A500EDD2E7CD33EC3392D524814006E4FFFE33
:1020B500FDFC22FCE4CFCECDCC24E0501174FF8092
:1020C500EDC3CC13CCCD13CDCE13CECF13CF04702F
:0720D500F030D5DE0221C44A
:102F060002211122EDA2E7D2E7F9EC3340F260F399
:102F1600B4FF08ED547F70E802211BF82481C2E05B
:102F2600C0E0F40428FAC313FCED92E7FD90013CDF
:102F360012222FEEA2E7E9BA7F02C31334009400EF
:102F4600FA75F091A4E5F013F494FE8AF0A433E543
:102F5600F033248CD313FDE492E7FE7F007C3F75AB
:102F66008302ECC0E0F8EDC0E0F9EEC0E0FAEFC095
:102F7600E0FB8583F090013C1221DE85F083121F71
:102F86004CD0E0FBD0E0FAD0E0F9D0E0F8121D52C8
:102F9600ED6480FD30E7011CD583C7ED33CC33F8F3
:0C2FA600D0E0A2E71328C313CC13FD22D7
:102BF900BE1249253E4CCCCDBEAAAAAB3F800000EF
:102C09003E7ADBB03EED63383F24BC7D3F490FDBA4
:102C1900ED33ECC2E7CC339208B4FF13ED547F6077
:102C2900030221117FDB7E0F7DC97C3F022D0EC27D
:102C390009C3947F401E7007EDD2E794904015EFC9
:102C4900FBEEFAEDF9ECF87F007E007D807C3F1207
:102C59001F4CD209ED33EC33248430E705E4C0E09E
:102C6900806B04FAEDD2E754F0C333DAFD5407342C
:102C7900002323C0E0CCC0E0F8EDC0E0F9EEC0E0ED
:102C8900FAEFC0E0FBE4122071EC24FEFC90013C59
:102C990012222F121E437B007A007980783F121D81
:102CA9005290013CE0B2E7CCF0A3E0CDF0A3E0CE36
:102CB900F0A3E0CFF0D0E0FBD0E0FAD0E0F9D0E02B
:102CC900F8121D5290013C122207121F4C90013C30
:102CD90012222F902BF9740312212690013C122203
:102CE90007121E43D0E0600F2405F582E4342CF569
:102CF90083122213121D5230090B7BDB7A0F79C91B
:102D090078BF121D52ED33EC336006ECA20892E74E
:022D1900FC229A
:10330700ECC0E0F8EDC0E0F9EEC0E0FAEFC0E0FB9A
:10331700121E43EC6480FC7B007A007980783F12B0
:103327001D52122F0AD0E0CFFBD0E0CEFAD0E0CD6D
:0B333700F9D0E0CCF8121F4C022C195A
:1020DC00E9D2E7C933E833F892D5EDD2E7CD33EC4A
:0720EC0033FC5002B2D522C3
:1020F300EC30E7100FBF000C0EBE00080DBD00044E
:102103000BEB6014A2D5EB13FCED92E7FD2274FFF9
:10211300FCFDFEFF22E480F8A2D574FF13FC7D8052
:03212300E480EF66
:10212600C0E0EFFBEEFAEDF9ECF8121E43D0E0F555
:10213600F0EFFBEEFAEDF9ECF81221EAA3A3A3A364
:10214600E8C0E0E9C0E0EAC0E0EBC0E0C0F0121E83
:1021560043122213A3A3A3A3121D52D0F0D0E0FB77
:0D216600D0E0FAD0E0F9D0E0F8D5F0D422B6
:102FBE00022D1BE493A3F8E493A34003F68001F2E1
:102FCE0008DFF48029E493A3F85407240CC8C33314
:102FDE00C4540F4420C8834004F456800146F6DFE3
:102FEE00E4800B01020408102040809029CFE47E7B
:102FFE00019360BCA3FF543F30E509541FFEE493D8
:10300E00A360010ECF54C025E060A840B8E493A39E
:10301E00FAE493A3F8E493A3C8C582C8CAC583CAC9
:10302E00F0A3C8C582C8CAC583CADFE9DEE780BE81
:012BF80000DC
:10217300BB010689828A83E0225002E722BBFE026A
:09218300E32289828A83E493229D
:10218C00F8BB010DE58229F582E5833AF583E8F089
:10219C00225006E92582C8F622BBFE05E92582C835
:0221AC00F2221D
:1021AE00A3F8E0C5F025F0F0E582158270021583E4
:0621BE00E0C838F0E82241
:0E21C400C3E49FFFE49EFEE49DFDE49CFC222C
:0C21D200E6FC08E6FD08E6FE08E6FF2239
:0C21DE00E0FCA3E0FDA3E0FEA3E0FF2274
:1021EA00E493FC740193FD740293FE740393FF223B
:0D21FA00E6FB08E6F908E6FA08E6CBF82255
:0C220700E0F8A3E0F9A3E0FAA3E0FB225A
:10221300E493F8740193F9740293FA740393FB2221
:0C222300ECF608EDF608EEF608EFF622E7
:0C222F00ECF0A3EDF0A3EEF0A3EFF02222
:10223B00A8828583F0D083D08212225212225212AE
:10224B002252122252E473E493A3C583C5F0C583D3
:10225B00C8C582C8F0A3C583C5F0C583C8C582C8ED
:01226B002250
:00000001FF
